:0200000460009A
:100000004643464200000156000000000103030081
:1000100000000000000000000000000000000000E0
:1000200000000000000000000000000000000000D0
:1000300000000000000000000000000000000000C0
:1000400000000000010408000000000000000000A3
:100050000000800000000000000000000000000020
:100060000000000000000000000000000000000090
:100070000000000000000000000000000000000080
:10008000EB04180A063204260000000000000000FD
:10009000050404240000000000000000000000002F
:1000A0000000000000000000000000000000000050
:1000B0000604000000000000000000000000000036
:1000C0000000000000000000000000000000000030
:1000D00020041808000000000000000000000000DC
:1000E0000000000000000000000000000000000010
:1000F0000000000000000000000000000000000000
:10010000D8041808000000000000000000000000F3
:100110000204180804200000000000000000000095
:1001200000000000000000000000000000000000CF
:10013000600400000000000000000000000000005B
:1001400000000000000000000000000000000000AF
:10015000000000000000000000000000000000009F
:10016000000000000000000000000000000000008F
:10017000000000000000000000000000000000007F
:10018000000000000000000000000000000000006F
:10019000000000000000000000000000000000005F
:1001A000000000000000000000000000000000004F
:1001B000000000000000000000000000000000003F
:1001C000000100000010000001000000000000001D
:1001D000000001000000000000000000000000001E
:1001E000000000000000000000000000000000000F
:1001F00000000000000000000000000000000000FF
:10020000FFFFFFFFFFFFFFFFFFFFFFFFFFFFFFFFFE
:10021000FFFFFFFFFFFFFFFFFFFFFFFFFFFFFFFFEE
:10100000D100204000180060000000000000000037
:1010100020100060001000600000000000000000D0
:0C1020000000006000001F000000000045
:10102C00FFFFFFFFFFFFFFFFFFFFFFFF7EFFFFFF45
:1014000000040020E9180060EB180060EB18006091
:10141000EB180060EB180060EB180060EB18006040
:10142000EB180060EB180060EB18006027550060B7
:10143000EB180060EB180060EB18006005690060B5
:10144000EB180060EB180060EB180060EB18006010
:10145000EB180060EB180060EB180060EB18006000
:10146000EB180060EB180060EB180060EB180060F0
:10147000EB180060EB180060EB180060EB180060E0
:10148000EB180060EB180060EB180060EB180060D0
:10149000EB180060EB180060EB180060EB180060C0
:1014A000EB180060EB180060EB180060EB180060B0
:1014B000EB180060EB180060EB180060EB180060A0
:1014C000EB180060EB180060EB180060EB18006090
:1014D000EB180060EB180060EB180060EB18006080
:1014E000EB180060EB180060EB180060EB18006070
:1014F000EB180060EB180060EB180060EB18006060
:10150000EB180060EB180060EB180060EB1800604F
:10151000EB180060EB180060EB180060EB1800603F
:10152000EB180060EB180060EB180060EB1800602F
:10153000EB180060EB180060EB180060EB1800601F
:10154000EB180060EB180060EB180060EB1800600F
:10155000EB180060EB180060EB180060EB180060FF
:10156000EB180060EB180060EB180060EB180060EF
:10157000EB180060EB180060EB180060EB180060DF
:10158000EB180060EB180060EB180060EB180060CF
:10159000EB180060EB180060EB180060EB180060BF
:1015A000EB180060EB180060EB180060EB180060AF
:1015B000EB180060EB180060EB180060EB1800609F
:1015C000EB180060EB180060EB180060EB1800608F
:1015D000EB180060EB180060EB180060EB1800607F
:1015E000EB180060EB180060EB180060EB1800606F
:1015F000EB180060EB180060EB180060EB1800605F
:10160000EB180060C96A0060EB180060EB1800601E
:10161000EB180060EB180060EB180060EB1800603E
:10162000EB180060EB180060EB180060EB1800602E
:10163000EB180060EB180060EB180060EB1800601E
:10164000EB180060EB180060EB180060EB1800600E
:10165000EB180060EB180060EB180060EB180060FE
:10166000EB180060EB180060EB180060EB180060EE
:10167000EB180060EB180060EB180060EB180060DE
:10168000EB180060EB180060EB180060EB180060CE
:10169000EB180060EB180060EB180060EB180060BE
:1016A000EB180060EB180060EB180060EB180060AE
:1016B000EB180060EB180060EB180060EB1800609E
:1016C000000000000000000000000000000000001A
:1016D000000000000000000000000000000000000A
:1016E00000000000000000000000000000000000FA
:1016F00000000000000000000000000000000000EA
:1017000000000000000000000000000000000000D9
:1017100000000000000000000000000000000000C9
:1017200000000000000000000000000000000000B9
:1017300000000000000000000000000000000000A9
:101740000000000000000000000000000000000099
:101750000000000000000000000000000000000089
:101760000000000000000000000000000000000079
:101770000000000000000000000000000000000069
:101780000000000000000000000000000000000059
:101790000000000000000000000000000000000049
:1017A0000000000000000000000000000000000039
:1017B0000000000000000000000000000000000029
:1017C0000000000000000000000000000000000019
:1017D0000000000000000000000000000000000009
:1017E00000000000000000000000000000000000F9
:1017F00000000000000000000000000000000000E9
:081800000010202021640060AB
:1018100072B6264880F30888254880F30988254851
:1018200025490860022080F31488BFF36F8F03F00E
:1018300017FC03F055FB4FF0553020491B4A9142ED
:101840003CBF41F8040BFAE71D49194A91423CBFDD
:1018500041F8040BFAE71B491B4A1C4B9A423EBF56
:1018600051F8040B42F8040BF8E700201849194A14
:1018700091423CBF41F8040BFAE703F02FFC04F05F
:10188000D9F9154C154DAC4203DA54F8041B8847BE
:10189000F9E702F035F8124C124DAC4203DA54F875
:1018A000041B8847F9E703F017BC00000004002080
:1018B000000C00200014006008ED00E00000002093
:1018C000000400201C950060000C0020340D002056
:1018D000001000208C22002008180060081800600A
:1018E000081800600818006092E700F000F8FEE7B2
:1018F0002DE9F04FC1F80CD0D0F80CD0BDE8F08F36
:10190000002383F311882846A047002003F0E2FD5E
:10191000FEE703F039FD00DFFEE7000053B94AB9E6
:10192000002908BF00281CBF4FF0FF314FF0FF30E7
:1019300000F074B9ADF1080C6DE904CE00F006F8C2
:10194000DDF804E0DDE9022304B070472DE9F0473B
:10195000089E0D4604468846002B4DD18A42944687
:1019600068D9B2FA82F252B101FA02F3C2F120014F
:1019700020FA01F10CFA02FC41EA030894404FEA14
:101980001C45210CB8FBF5FE1FFA8CF705FB1E83E6
:1019900041EA03430EFB07F199420BD91CEB030309
:1019A0000EF1FF3080F01E81994240F21B81AEF1B2
:1019B000020E63445B1AA4B2B3FBF5F005FB1033CF
:1019C00044EA034400FB07F7A7420AD91CEB0404CE
:1019D00000F1FF3380F00881A74240F205816444A2
:1019E0000238E41B40EA0E4000211EB1D44000231F
:1019F000C6E90043BDE8F0878B4208D9002E00F00D
:101A0000EE800021C6E900050846BDE8F087B3FA7C
:101A100083F100294AD1AB4202D3824200F2F9801D
:101A2000841A65EB030301209846002EE2D0C6E934
:101A30000048DFE702B9FFDEB2FA82F2002A40F086
:101A40009180A1EB0C054FEA1C471FFA8CFE012187
:101A5000B5FBF7F307FB1350250C45EA00450EFBD9
:101A600003F0A84208D91CEB050503F1FF3802D2A8
:101A7000A84200F2CB8043462D1AA4B2B5FBF7F082
:101A800007FB105544EA05440EFB00FEA64508D9A5
:101A90001CEB040400F1FF3502D2A64500F2BB8026
:101AA0002846A4EB0E0440EA03409EE7C1F120075C
:101AB0008B4022FA07FC4CEA030C20FA07F405FAE3
:101AC00001F31C43FD404FEA1C4900FA01F3B5FB4A
:101AD000F9F8200C1FFA8CFE09FB185540EA054561
:101AE00008FB0EF0A84202FA01F20BD91CEB050527
:101AF00008F1FF3A80F08880A84240F28580A8F182
:101B0000020865442D1AA4B2B5FBF9F009FB105583
:101B100044EA054500FB0EFEAE4508D91CEB050561
:101B200000F1FF346CD2AE456AD90238654440EA10
:101B30000840A0FB0294A5EB0E05A542C846A646A8
:101B400056D353D05EB1B3EB080265EB0E0505FA30
:101B500007F722FA01F3CD401F43C6E900750021C3
:101B6000BDE8F087C2F1200320FA03F10CFA02FC71
:101B700025FA03F395400D434FEA1C471FFA8CFEEC
:101B8000B3FBF7F107FB11302B0C43EA004301FBD9
:101B90000EF0984204FA02F408D91CEB030301F199
:101BA000FF382FD298422DD9023963441B1AADB2A7
:101BB000B3FBF7F007FB103345EA034500FB0EF3D8
:101BC000AB4208D91CEB050500F1FF3816D2AB4239
:101BD00014D902386544ED1A40EA014138E731462C
:101BE000304607E78646E5E61846FAE64B45A9D2B1
:101BF000B9EB020864EB0C0E0138A3E74046EAE7B4
:101C0000204694E74146D1E7D0467BE7023B654456
:101C100032E7084609E76444023842E7704700BFEC
:101C200001F0FF01102A2BDB10F0070F08D010F88D
:101C3000013B013A8B422DD010F0070F42B3F6D191
:101C4000F0B441EA012141EA014122F007047FF0AA
:101C500000070023F0E80256083C85EA010586EA01
:101C6000010685FA47F5A3FA87F586FA47F6A5FA3D
:101C700087F68EB9EED1F0BC01F0FF0102F0070249
:101C800032B110F8013B013A83EA010313B1F8D1F4
:101C90000020704701387047002D06BF35460338D5
:101CA000073815F0010F07D1013015F4807F02BF0E
:101CB000013015F4C03F0130F0BC0138704700BF5F
:101CC00010B5074C01F07CFC204606220D2104F0E3
:101CD0003FFC20460122BDE810400D2104F02ABC43
:101CE00000400042044A506842F6DF6153681B1A04
:101CF0008B42FBD9704700BF001000E050B90F299C
:101D000008D8092A06D80A2303FB0122024B33F81C
:101D10001200704701207047588E0060FFF7EEBF39
:101D20000120704708B5FFF7FBFF08BD0120704791
:101D30000120704708B5FFF7FBFF08BD704708B5E5
:101D4000FFF7FCFF08BD000013B502AB03E9030079
:101D50000F4B1B78B3B99DF8053073B16AB100F031
:101D600007FD04460146009800F0D0FC009920468B
:101D700002B0BDE8104001F0D7BA009800F0E0FCD6
:101D80000446F3E7009800F0F3FC0099F0E700BF89
:101D900005100020034610B400885C880A4640EA1B
:101DA0000440998810BCFFF7CFBF10B5012104464D
:101DB000FFF7F0FF2146FFF7B5FF10BD10B500217A
:101DC0000446FFF7E7FF2146FFF7B9FF10BD704754
:101DD00008B500F0B1FBFFF7FAFFBDE8084040F698
:101DE000C41003F07CBB08B5FFF7F2FFBDE8084064
:101DF00002F0E0BD08B5FFF7EBFFBDE8084002F0D8
:101E0000E0BD38B501210546FFF7C4FF2946044669
:101E1000FFF790FF08B9002038BD2946204602F0A0
:101E20005DFB0028F7D02946204602F099F80028EB
:101E3000F1D02946204602F0CFFA0028EBD06B798A
:101E40007BB147F65A439C4222D00ED847F6014355
:101E50009C421AD047F603439C4214D0B4F5F84F85
:101E60000ED02846FFF762FFD6E747F65B439C4259
:101E700011D047F65C439C42F3D101F015F8F0E72E
:101E8000FFF7B1FFC7E701F021F8FFF7B3FFC2E7A3
:101E900001F016F8E5E701F016F8E2E708B502F000
:101EA000F2FCBDE8084000F01FB808B500F021F8CA
:101EB000BDE8084002F0ECBC704701207047704755
:101EC00038B50546FFF7F9FF044610B12846FFF77D
:101ED000F6FF204638BD704710B50446FFF7ECFF0B
:101EE0002046FFF7EDFF10BD08B50020FFF7F4FF17
:101EF00008BD08B502F046FBFFF7EEFF08BD000085
:101F000010B502F03FFB074B1A788242044607D017
:101F1000187002F00FFD044B18602046FFF7DCFF3D
:101F200010BD00BF04100020001000201FB56C463B
:101F300084E803009DF805300BB100F0E5FE0023B6
:101F4000ADF80E3094E80300ADF80C10C9B2029061
:101F500002AC29B994E8030000F01AFE04B010BDE9
:101F60002046FFF722FF0028F4D1F7E70379012B81
:101F700002D1008800F01EBC704708B529B101F0FD
:101F80004BFDBDE8084001F01BBE01F0A3FDF8E7E2
:101F900010B50446002847D0031FDBB2A02B15D88C
:101FA00002F05CF900283FD1204B2146186802F06E
:101FB00069FB20B1204600F055FE00F0EDFE204602
:101FC00000F048FEBDE8104000F0E6BE00F120033E
:101FD000DBB2072B07D800F007040120A040C0B2F5
:101FE00000F06CFEEEE700F15B03DBB2022B05D8DC
:101FF0002438BDE8104080B202F0EEBA00F1580378
:10200000DBB21A2B06D80A4ABDE8104032F813009A
:1020100002F0FEBA3334E4B2122C05D801F0FCFC15
:10202000BDE8104001F0CCBD10BD00BF000C002089
:10203000988F006008B50346A0B3021FD2B2A02A51
:1020400005D800F00FFEBDE8084000F0A5BE00F185
:102050002002D2B2072A07D800F0070301209840D7
:10206000C0B200F033FEEEE700F15B02D2B2022A0A
:1020700004D8BDE80840002002F0AEBA00F15802D2
:10208000D2B21A2A04D8BDE80840002002F0C0BA33
:102090003333DBB2122B05D801F01CFDBDE808403C
:1020A00001F08EBD08BD38B505460C46FFF770FF40
:1020B0001CB92846FFF7BEFF38BD0A20013C03F0DB
:1020C0000EFAA4B2F4E708B539280CBF502100215C
:1020D000FFF7E9FF08BD08B528B100F0EFFDBDE846
:1020E000084000F059BE08BD08B528B100F0EEFD6B
:1020F000BDE8084000F050BE08BD00002DE9F047E3
:102100008779457980460C4600F0C8FD3F090646B0
:10211000F0B12E46E5B1C4F3072303F0F002402AE4
:1021200009D004F12002D2B2072A24D91FB903F042
:10213000E003202B21D0A94B5E7816F0040607D0CF
:10214000022000F081FE00F0A9FD80F00106F6B249
:10215000C4F30339B9F10B0F3ED8DFE819F01000D2
:1021600010005E005E00B800D0003D003D00D500CC
:102170003501480148010026EAE73E46E8E7C4F396
:102180000723C4F3032713F0F00F18BF3F01E4B295
:1021900085B157B104F12003DBB2072B384600D9D3
:1021A0002CB900F08BFD00F0F7FD204655E000F063
:1021B0009BFDF8E72046FFF73DFF6FB104F12003D8
:1021C000DBB2072B384600D914B900F07FFD01E0DF
:1021D00000F092FD00F0E0FDA9F10809B9F1030F4C
:1021E00003D802F0CFF9FFF777FE002E00F05881F8
:1021F00000F04CFD10F0010040F0528188F805001D
:1022000000F03EFD00F01AFA404600F05FF900F0E1
:1022100037FDBDE8F04700F01DBAC4F3072303F013
:10222000F003C4F3032A202BE4B218BF4FEA0A1AC2
:102230002CB1012C34D0002D3CD0DFB1B5E7674B79
:102240005B78580714D45DB1BAF1000F04D0504642
:1022500000F034FD00F0A0FD0020FFF799FEBBE781
:102260002846FFF7E7FEBAF1000FB5D05046ACE7BD
:1022700055B11FB95046FFF72EFFADE7012FABD187
:10228000504600F061FDA7E7002FA5D15046FFF7AB
:102290002BFF504600F066FD504600F041FD9BE7E5
:1022A00015B1052F98D8E5E7042F95D85046FFF7CC
:1022B0001BFF91E7002FF9D0392C0CBF4FF4487069
:1022C000012003F00CF92046FFF7B4FE84E714F474
:1022D000406FC4F3812308D0012B7FF47DAF65B13B
:1022E000C4F3090002F094F976E725B1C4F30900BC
:1022F00002F072F970E72846FAE72846F2E7294625
:10230000E0B2FFF73AFE67E714F4407F2BD1002DCF
:102310007FF462AFC4F34213E1064FEA830348BF80
:102320000F25DBB248BF9D4004F00F0048BFED43CE
:1023300000FA03F0C4F3812448BFADB282B2022C8C
:1023400045EA020009D0032C0AD0012C02D000F08B
:102350004DF941E700F042F93EE700F04FF93BE765
:1023600000F039F938E7C4F301220DB312F0010F80
:102370003FF432AFC4F342108000C3B204F00F0048
:10238000984082B214F010001EBF0F209840C04346
:10239000C4F3812414BF83B20346022C43EA020033
:1023A0000CD0032C0DD0012C05D000F071F913E7EF
:1023B00012F0020FDCE700F063F90DE700F070F9AE
:1023C0000AE700F029F907E7E7B2C4F303243DB1B7
:1023D000204600F033F938464DE700BF10210020B9
:1023E0003846FFF781FE204600F034F9F4E65FFA44
:1023F00084FAAAF1F003042B3DD8DFE803F00322AE
:102400000E151E003DB1042F3FF6E6AEC4F30420C6
:1024100000F02AF9E0E6052FF6E7C4F30420002DCA
:10242000E2D100F00BF9D7E625B1C4F3042000F0A7
:10243000FEF8D1E600F0F8F8CEE61A4B5B785B07C1
:1024400004D4C4F30420002DCED0EAE74DB1C4F388
:102450000424204600F0F2F80321204600F0D2FCCC
:10246000BAE6012000F0F0FC012F7FF6B5AE0220A5
:1024700000F0EAFCB0E62DB10FB15046EDE6C4F332
:102480000420CEE74FB1BAF1390F0CBF4FF44870BA
:10249000012003F024F8504616E7C4F30420A3E714
:1024A000BDE8F0871021002038B501880446407946
:1024B00000F08CF9054600F0FBF800F08BF8294697
:1024C0002046BDE83840FFF719BE0000037910B57B
:1024D0000446B3B1FFF795FC68B900F0DFFB80B1AB
:1024E000637973B1074B5B785B070AD5BDE8104091
:1024F000022000F0A9BC2046FFF7D6FF2046FFF7D8
:102500005DFC10BD1021002008B5002002F064F829
:10251000002002F07DF800F0F7FB00F03DFC01F038
:102520006BFBBDE8084001F04BBB08B500F0A2FB17
:10253000BDE80840FFF7E8BF08B500F0CFFBBDE8F5
:102540000840FFF7F2BFC0F30333062BC2B213D02B
:1025500094BF0E33063303F00F03012B10D8F02A7B
:1025600010D004D8E72A8CBF002001207047F42A3D
:1025700014BF002001207047E72A03D9F12AF7E7AA
:10258000002070470120704708B50346007930B13C
:10259000188800F00FF9BDE80840FFF7D4BF08BD68
:1025A00082B002AB03E9030002B0704782B002AB15
:1025B00003E9030002B07047704708B5FFF7FCFF5E
:1025C00008BD000008B5FFF7F8FF014B188008BDF3
:1025D000061000207047FFF7F5BF0000024B1B8874
:1025E0001843FFF7EFBF00BF06100020024B1B8807
:1025F0001840FFF7E7BF00BF06100020024B1B8802
:102600005840FFF7DFBF00BF06100020704708B535
:10261000FFF7FCFF08BD000008B5FFF7F8FF014B0E
:10262000188008BD081000200020FFF7F5BF012327
:1026300003FA00F080B2FFF7EFBF0000012303FAB6
:1026400000F0034B1B88184380B2FFF7E5BF00BFC3
:1026500008100020034A01238340108820EA030069
:10266000FFF7DABF08100020012303FA00F0034B44
:102670001B88584080B2FFF7CFBF00BF0810002072
:10268000024B1B881843FFF7C7BF00BF081000208C
:10269000024B1B881840FFF7BFBF00BF0810002087
:1026A000024B1B885840FFF7B7BF00BF081000203F
:1026B000704701F0070330B5C908012402EB81021D
:1026C0009C40E4B2013A002112F8015F20FA01F3C4
:1026D00043F300036B40234001316B400429137026
:1026E000F2D130BD10B5002200F00704C00801EBA4
:1026F000800110468B5CE34003F0010393400132FC
:102700001843042AC0B2F5D110BD000082B00B46B8
:10271000ADF80400C0F307200F280CD89DF8041072
:10272000092908D800EB8000044A01EB4001184653
:1027300002B0FFF7BEBF02B0704700BF0A10002012
:1027400082B0ADF80400C0F307200F280BD89DF825
:102750000430092B07D8054900EB800003EB40004B
:1027600002B0FFF7BFBF002002B070470A10002080
:102770000E4B73B51D880E4BADF804001B881D432E
:10278000ADB20F2445FA04F3DB07E6B205D4013CF1
:10279000F8D20026304602B070BD0199304600F0F4
:1027A000D4FD80B20128F2D0F4E700BF0810002069
:1027B0000610002007B5ADF804000198FFF7D8FF18
:1027C000019903B05DF804EB00F0BFBD13B5104BE9
:1027D000ADF804101B782BB1019802B0BDE8104091
:1027E000FFF7E8BF70B10198FFF7C2FF044601464A
:1027F0000198FFF78BFF0199204602B0BDE8104019
:1028000000F0A3BD0198FFF79BFF0446F3E700BF6C
:1028100005100020F8B50C4B0C4E1C780C4D33788D
:10282000A34200D1F8BD05EBC40335F834005F883E
:102830009A88D98840EA074042EA01410134FFF70B
:10284000B5FE04F00704EAE7A3100020A210002060
:1028500062100020064B10B418885C889A88D988CA
:1028600040EA044042EA014110BCFFF79FBE00BFAE
:102870005A1000201B48F8B5837913F0F00F0AD1E5
:10288000437943B1184B194A1B7815780688478855
:10289000174CAB4200D1F8BD04EBC3011AB2097961
:1028A000E1B134F83220B24218D104EBC3014A79C5
:1028B000A2B94A88D21B92B2C72A0FD883790122C3
:1028C00062F3071383718B79064862F307138B71E8
:1028D000FFF7FCFDBDE8F840FFF79CBF013303F0B4
:1028E0000703D6E75A100020A3100020A2100020F2
:1028F00062100020F0B50D4B0D4C1B7826780D4C66
:10290000B34201D10020F0BD04EBC3056F788F42C4
:1029100006D114F83370874202D16D79954203D104
:10292000013303F00703EBE70120ECE7A3100020DD
:10293000A2100020621000202DE9FF47934DE846C9
:10294000044606220146404605F02EFB2B796779A6
:102950002279C3B9AAB18FB12046FFF715FE06460A
:1029600060B108222146284605F01EFB2846FFF7E5
:10297000FDFAFFF77FFFFFF76DFF4CE02046FFF702
:10298000A5FD012647E0B4F802906B886E79A9EBAB
:1029900003039BB2002E00F0B280C72B00F28A80A6
:1029A000002A38D0AB792988228813F0F00F50D153
:1029B00091420FD1002F40F0E380012262F3071310
:1029C000AB71FFF747FF2846FFF780FDAB79A37196
:1029D000002620E0002F40F0D380257861783A4629
:1029E0002846FFF787FF2846FFF784FF05460028A3
:1029F000EED10098FFF7DEFEC0F30332032AC3B224
:102A00000DD8012A15D910F4706F17D0A27912F0E1
:102A1000F00F13D12E46304604B0BDE8F0870632E1
:102A200002F00F02012A0ED92046FFF74FFD35466E
:102A3000F0E710F4706F01D0002BEBD02033DBB245
:102A4000072BE7D9F0E7EF2BE4D90F33DBB2022BEA
:102A5000F7E791420AD14FB92046A371FFF736FD3F
:102A600008222146284605F09FFA84E72046FFF712
:102A70008BFD002882D0002F80D0AB791F2B0FD97F
:102A80002A88ADF808202A798DF80C2002A80022A7
:102A9000ADF80A908DF80D208DF80E30FFF716FD79
:102AA00008222146394805F07FFAFFF7E3FEFFF7D9
:102AB000D1FE66E7AB7913F0F00A0ED198E8030077
:102AC000FFF76EFD2846FFF701FD08225146284614
:102AD00005F078FAFFF7BEFE7AE7002A9BD0298836
:102AE00022889142C2D1002FC0D12046A371FFF7A6
:102AF000EDFC08223946284605F064FA8BE7C72B1F
:102B000034D8002A3FF43DAF3E46002F3FF436AFA5
:102B10002A8823889A421CD1AB79DA0713D413F0A0
:102B2000F00210D0F02AA37106D0DBB2C3F3031277
:102B3000013262F30713A3712046FFF7C7FC134865
:102B4000082221468FE708222146104805F02CFA7A
:102B500061E72046FFF718FD0028A1D1AB79204698
:102B600043F00103AB71FFF7B1FC54E798E80300B1
:102B7000FFF716FD08223146284605F023FAFAE64B
:102B8000AB7943F00103AB7122E700BF5A1000207C
:102B9000F0B585B06C4684E803002046FFF7CCFE14
:102BA000284F294D064668B19DF804301BB194E8C2
:102BB0000300FFF7FBFC254C28783B78834226D1A5
:102BC00005B0F0BD94E803009DF8042002AB83E853
:102BD0000300002AEFD038782A78441C04F0070458
:102BE00094420AD01946194B082203EBC00005F0A5
:102BF000DBF93C70FFF70EFEDDE7FFF79DFC0822D6
:102C0000314613483E702E7005F0DCF9D3E704EB33
:102C1000C000FFF791FE0028D2D02B7834F83300A3
:102C200004EBC3035E889A88D98840EA064042EAEA
:102C30000141FFF7BBFC2B78013303F007032B7036
:102C4000BAE700BFA2100020A310002062100020ED
:102C50005A100020024B0146186801F07FBD00BFEA
:102C6000000C0020024B0146186801F08FBD00BF28
:102C7000000C0020014B186801F0A0BD000C0020E2
:102C8000014B1878C0087047E4100020024B1878F8
:102C900000F00700704700BFE4100020034B1878D5
:102CA00010F0070018BF0120704700BFE41000209B
:102CB000014B1878704700BFE7100020024B1A78CC
:102CC00010431870704700BFE7100020024A1378C5
:102CD00023EA000313707047E7100020014B002225
:102CE0001A707047E7100020024B1A7810431870D2
:102CF000704700BFE8100020024A137823EA00035F
:102D000013707047E8100020014B00221A707047C2
:102D1000E8100020704708B5FFF7FCFF08BD000071
:102D200008B5054A1378034204D023EA0000107066
:102D3000FFF7F1FF08BD00BFE5100020704708B5A0
:102D4000FFF7FCFF08BD000008B505490B7830EA25
:102D5000030C03D003430B70FFF7F1FF08BD00BF66
:102D6000E610002008B5054A1378034204D023EA90
:102D700000001070FFF7E3FF08BD00BFE610002061
:102D800008B5044B1A781AB100201870FFF7D7FF66
:102D900008BD00BFE610002010B5124B124A1B7888
:102DA0001278124C1343124A20681278037032B121
:102DB0001343037001F048FC08B1FFF7E1FF2468FA
:102DC0000C492022204605F0DFF848B12146094889
:102DD000202205F0E9F82046BDE8104001F0DABBFA
:102DE00010BD00BFE7100020E8100020000C0020FC
:102DF000E6100020C4100020704708B5FFF7FCFF64
:102E000008BD0000094A5278520710B50AD5084C8F
:102E100041EAC0012170FFF711FC2078C008FFF7DC
:102E2000ECFF10BDBDE81040FFF708BC10210020EA
:102E3000E410002008B5034B00201870FFF7DDFFF9
:102E400008BD00BFE410002008B50A4A137823EA41
:102E50000000107042070CD198420AD0064B5B78F4
:102E60005B0706D5C008FFF7F5FBBDE80840FFF794
:102E7000E1BF08BDE410002010210020094A08B578
:102E80005378C3F3800181420AD060F38203537008
:102E9000108800F038F8BDE808400220FFF7D4BFE2
:102EA00008BD00BF10210020044B5878C0F38000FB
:102EB00080F0010000F00100FFF7E0BF10210020CA
:102EC0000120FFF7DBBF0020FFF7D8BF08B501F0F6
:102ED00015F8BDE808404FF6FF71002000F0F2BF82
:102EE00008B5002000F087FF4FF6E663C31A58428A
:102EF000584108BD022000F06FBF032000F06CBFF6
:102F0000042000F078BF0146042000F0DBBF01463A
:102F10000F2000F0E5BF0146132000F0E1BF0020C4
:102F2000FFF7F9BF08B50020FFF7F1FFFFF7F7FF44
:102F300008BD000013B500F0E1FF4FF6E661002088
:102F400000F0C0FF0021022000F0AEFF00210320AE
:102F500000F0AAFF1A4B00244FF4A05104201C805B
:102F600000F0B0FF2146062000F09EFFFF21072061
:102F700000F09AFF2146082000F0B2FF21462420ED
:102F800000F092FF2146172000F08EFF21460C2012
:102F900000F08AFF21460D2000F086FF002300226A
:102FA000CDE9002368460822182100F063FF21467E
:102FB000202000F095FFFFF7B5FF02B010BD00BF65
:102FC00006100020FFF7B6BF01460E2000F06CBFD0
:102FD00073B50C4D01F0E2FC2B88834204460ED001
:102FE0000026ADF8006001F0D9FCADF80460ADF842
:102FF000020002AB13E90300FEF798FF2C8002B039
:1030000070BD00BFF410002008B501F093FC024B26
:103010001860024B186008BDEC100020F010002072
:103020007047704708B5FFF7FCFF08BD704708B54B
:10303000FFF7FCFF08BD01207047000008B50548F8
:1030400000F07AFA00F062FFFFF7EAFFFFF7EAFF0D
:1030500008BD00BF313500600120704708B5FFF79B
:10306000FBFF08BD7047704708B5FFF7FBFFFFF790
:10307000FAFF08BD08B500F081FABDE80840FEF788
:103080002ABF08B501F054FC00F02AFBFFF7F2FF5D
:10309000FFF7CDFF08BD00002DE9F04F85B0FFF729
:1030A000CAFF40B9FFF794FF00F0CEFD05B0BDE8C0
:1030B000F04FFEF725BF2D4F00F02CFB3E460024BD
:1030C000E0B236F8025B00F081FA0F2C4AD085425C
:1030D00004F10104F4D0264B1B789B0701D500F0C6
:1030E0007BFAFFF7BBFF4FF0000800904FF0010A9A
:1030F0005FFA88F9484600F069FA37F8023B9842CF
:10310000044627D043409BB2002501260DF1080B51
:10311000334217D0009AAAB101938DF808508DF868
:10312000099001F03BFC344214BF01210021ADF8AD
:103130000A008DF80CA08DF80D109BE80300FEF737
:10314000F5FE019B0135EDB276000A2DB6B2DFD156
:1031500027F8024C08F10108B8F1100FC8D1FFF7A9
:1031600053FFA1E78542B6D19CE700BFF6100020CF
:103170001611002038B500F0F3F8B0F5A44F04465E
:1031800043D2B0F5A04F80F0AC80DF2816D8CC2811
:1031900000F28A80A7280AD8A42878D8012804D069
:1031A000031F9BB2A12B28BF0024204638BDA0F1ED
:1031B000A8039BB21A2B6FD90024F6E7B0F5804F15
:1031C00019D2B0F5005F80F09C80E728EDD9A0F51A
:1031D00080739BB2B3F5F85FEED2C0F3072000F026
:1031E00045F90546E0B200F0BBF82D0205F4F855AC
:1031F0000543ACB2D9E7C0B200F0B2F804F4706491
:10320000044344F42044A4B2CFE7B0F5A54F21D243
:1032100045F25F23984251D845F23F2398420ED899
:1032200045F21F23984242D8C0F38503012400F0E1
:103230000300844044EA431444F40D44E3E7C0F33C
:103240008203012400F00300844044EA431444F460
:103250000C44D8E745F2BF2398420AD845F29F2391
:10326000984200F01F0034D84AF2F40444EA0024E3
:103270009BE7A0F5A543403B9BB21F2B9CD80402C3
:1032800004F4F85444F4204444F0F0048DE7A0F131
:10329000240444F48044B6E75834224BE4B233F8B3
:1032A000144044F4884480E740F4A044ABE700F0C5
:1032B0001F044AF2F10343EA042476E7C0F38203D1
:1032C000012400F00300844044EA431444F40A4417
:1032D00099E700F0CBF8040204F4F85444F40054E5
:1032E00063E700F01F0000F0C1F8C306C4F3431405
:1032F00048BF0001240200B2204340F4104084B2D1
:1033000053E7C0F3042000F0B1F80546E0B200F046
:1033100027F82D0205F4F85545EA000444F400545A
:1033200071E700BFCE8F006082B0ADF80410C1F32A
:1033300007210F2906D89DF80420092A02D802B0D7
:10334000FEF7ECBC002002B0704707B5ADF80410E2
:103350000199FFF7E9FF03B05DF804EBFFF70ABF3F
:10336000E72850D8DF2807D8312865D00ED829287B
:1033700058D02A2867D07047A0F1E003072B42D825
:10338000DFE803F01541242933413D42392804D0B8
:10339000822802D0352840D07047334B1A789207E4
:1033A0005CD15B7813F0080F18BF292070472E4AB4
:1033B0001378D9074ED4527812F0010F23D013F0AE
:1033C000100F08BFE32018BF00207047264B1B7862
:1033D00013F0040FF2E7244A137859073CD45278CB
:1033E000D2073BD413F0100FEDE71F4B5A7891072B
:1033F00009D51B7813F0100F08BFE720E3E71A4B3D
:103400001B781A07F6D47047174A1378190727D480
:1034100052789107E6D5E4207047134B1B7813F0E0
:10342000200FC1E7104B1A7892061BD45B7813F07B
:10343000080F18BF392070470B4B1B7813F0400F53
:1034400018BF2A207047084B1B7813F0400F18BF95
:103450003120704739207047E2207047E0207047E4
:10346000E62070473520CEE71021002010B52F4C04
:1034700021784B0713D500F01402A2F1040C00F0E0
:103480001803DCF1000242EB0C02A3F1080CDCF1A2
:10349000000343EB0C039A4218BF80F00C000B07AB
:1034A00013D500F01402A2F1140C00F01803DCF1A3
:1034B000000242EB0C02A3F1180CDCF1000343EB19
:1034C0000C039A4218BF80F00C006478E30713D510
:1034D00000F0110202F1FF3C00F01803DCF10002E1
:1034E00042EB0C02A3F1080CDCF1000343EB0C03EC
:1034F0009A4218BF80F00900A30711D500F011020D
:1035000000F01803A2F111046242A3F1180C624109
:10351000DCF1000343EB0C039A4218BF80F0090072
:10352000CB0648BF00F0E70010BD00BF102100200F
:103530000020704700207047014B1860704700BFA3
:10354000040C0020FFF7C2BC08B500F0E3F84FF40C
:10355000C87001F0C4FF00F0DDF8002000F036F87C
:10356000830505D5FFF7EEFFBDE8084001F022BA5C
:1035700008BD08B5FFF7E8FF08BD000008B5FFF774
:10358000AFFC08B9FFF71EFDFFF7B4FC094B18703C
:10359000FFF7B6FC084B1880FFF7EBFFFFF7ADFC19
:1035A00080B2FFF718F8054B1888BDE80840FFF710
:1035B0002EB800BF16110020102100200810002096
:1035C0007047704708B5FFF7FCFF08BD014B33F8A3
:1035D00010007047322100207047704708B5302333
:1035E00083F31188C1B220F47F60032220F00F0022
:1035F00002F0AEFF002383F3118808BD38B50C4DEF
:10360000102455F8040B421C01D0FFF7E7FF013CE2
:1036100014F0FF04F5D1074D0A2455F8040B431CA0
:1036200001D0FFF7DBFF013C14F0FF04F5D138BDFA
:103630002C900060049000602DE9F84FDFF8948032
:1036400058F821400D46611C074638D0302383F3DB
:103650001188DFF8849004EA0906E4B22146304676
:10366000062202F075FF21460022304602F062FF7A
:10367000002484F31188FFF7B0FFDFF860B00A265A
:103680004FF0010A5BF8040B421C1AD10023013EE3
:103690001C434FEA4A0A16F0FF06A4B21FFA8AFA40
:1036A000F0D158F82500431C01D0FFF797FF211EE9
:1036B00018BF01212846FEF715FB27F81540BDE885
:1036C000F88FC1B200EA090002F02AFF0028DDD11C
:1036D0005346DCE72C90006000F0FFFF0490006090
:1036E00010B52024FFF78AFF22460021074804F086
:1036F00069FC22460021064804F064FC102000F01A
:1037000037F8BDE81040FEF7DBBA00BF32210020D9
:103710001221002010B588B020220021684604F054
:1037200051FC0024E1B268460134FFF785FF102CFC
:10373000F8D10D482022694604F026FC002814BF69
:103740000124002404D008482022694604F02CFCFF
:10375000234606490448102200F01CF80446FFF7EF
:1037600031FF204608B010BD122100203221002078
:1037700010B500EB80004400204604F0FDFB044B34
:1037800022460021BDE81040186004F01BBC00BFB9
:103790001C1100202DE9F04F4B4EDFF830813778B7
:1037A00085B01D4601924A4A039000230C461370CF
:1037B000002F5ED001F0BEF8464A13681060C31AAD
:1037C000FF2B04D823B9002D5CD13D4652E0FF23E6
:1037D000D8B2414B0022D3F800C0327088F80020E4
:1037E0009646914692460199D3B299420BD8B9F1C7
:1037F000000F01D001233370BEF1000FE3D001238D
:1038000088F80030DFE70CF1FF330CF1090B13F8F7
:10381000011F41B1884233BF091A83F800A0BE4698
:10382000197038BFB9469B45F1D10CF10A0C013231
:10383000D9E7039A658832F81310002269400BFA21
:1038400002F818EA010F1FFA88FA0BD01EF802805E
:10385000B8F1000F06D101200EF802908AEA0505A2
:103860008446074601320A2AE9D124F8025F01336F
:1038700017E01DB998F800300BB31DB901F05AF8E4
:10388000144B1860144A377812680292104A0023C9
:10389000107888F80030023C9C464FF0010B4FF046
:1038A0001409029A0A2101FB032E0199DAB291420E
:1038B000BFD8BCF1000F02D0054B37701870044B15
:1038C000187805B0BDE8F08F1811002024110020F1
:1038D00017110020201100201C11002008B501F054
:1038E0000FFBFFF7CEFBBDE8084001F01FBB08B59A
:1038F00001F022FBFFF7D0FBBDE8084001F040BB20
:1039000008B500F0DBFF01F0F9FAFFF797FBFFF7CE
:10391000E5FFFFF7ECFFFFF7A7FBFAE700EB40033B
:10392000C3EB031300EB830003B2002B07DAB3F100
:10393000800001D503F17F0040F30720704703F1B9
:103940008000F9E7164B1B78D90707D5154B187877
:1039500040007F2820D808B3C0B270479A0703D52B
:10396000104B18788000F4E75B0703D50D4B1878EF
:10397000C000EEE70C4B1B7863B10C4A0949127882
:1039800008789342F4D210FB03F0C000B0FBF2F0D1
:1039900080B2DEE70820DFE77F2070470120704714
:1039A000301100200A0C0020311100200B0C0020E7
:1039B000154B1B78D90705D5144B1878800800B330
:1039C000C0B270479A0703D5104B18784008F6E745
:1039D0005B0705D50D4B18787F28F0D97F207047FD
:1039E0000B4B1B785BB10B4A08491278087893425D
:1039F00036BF10FB03F080B2B0FBF2F0ECE7012021
:103A0000DEE70120704700BF301100200E0C0020BF
:103A1000321100200F0C0020CD2808B505D1FFF78A
:103A200091FF4042294BD87008BDCE2802D1FFF744
:103A300089FFF7E7CF2805D1FFF784FF4042234BEA
:103A40009870F1E7D02802D1FFF77CFFF7E7D9287B
:103A500004D1FFF7ADFF1D4B1871E5E7DA2803D15C
:103A6000FFF7A6FF4042F6E7DB2805D1FFF7A0FFEE
:103A70004042164B5871D7E7DC2802D1FFF798FF78
:103A8000F7E700F12F03DBB2072B08D80F4A012319
:103A9000D13803FA00F0537818435070C4E7DD289A
:103AA00005D10B4A137843F001031370BCE7DE28FD
:103AB00004D1074A137843F00203F6E7DF28B3D1B5
:103AC000034A137843F00403EFE700BF2A110020F4
:103AD00030110020364BCD2893F902200AD193F9FA
:103AE000031000290CDA0021D97052B9314A0021A3
:103AF000117006E0CE280DD193F903100029F2DCF5
:103B000072B11A795B7913435AB2002B4FD12A4B09
:103B10001A707047CF2806D1002AF1DA00229A7075
:103B200093F90320E1E7D02802D1002AF6DCE7E789
:103B3000D92893F9041004D10029E1DD002119717D
:103B4000DEE7DA2802D10029DADAF7E7DB2893F991
:103B5000051004D10029D3DA00215971D0E7DC28FF
:103B600002D10029F8DCCBE700F12F01C9B2072907
:103B700007D8D13801218140587820EA01005870D7
:103B8000BEE7DD2805D10D48017821F00101017063
:103B9000B6E7DE2804D10948017821F00201F6E7F2
:103BA000DF28ADD10548017821F00401EFE7704727
:103BB0002A11002031110020321100203011002084
:103BC00008B500F0EBFE094BDA7899780A431CBF80
:103BD000074A10801A795B7913431CBF054B188084
:103BE000BDE80840014800F0EDBC00BF2A110020EC
:103BF000261100202811002008B5062205480021C2
:103C000004F0E0F9044A00231370044A1370044AD4
:103C1000137008BD2A11002031110020321100203C
:103C20003011002090F902305BB990F9033043B9AC
:103C300090F904302BB990F90500003818BF012025
:103C4000704701207047000037B55A4C06222146C4
:103C5000684604F0A9F900239DF80220A370E370E0
:103C6000237163719DF8033013430AD0524B1888B7
:103C700000F099FE51490B783BB3514A12789042BB
:103C80002DDC9DF804209DF8053013430BD04D4BDF
:103C9000188800F088FE4C490B78002B4FD04B4A17
:103CA0001278904255DC4348694600F09BFD18B9F4
:103CB0004048FFF7B7FF08B1FFF782FF06226946C9
:103CC0003C4804F071F903B030BD414A127802EB70
:103CD0008202B0EB420FD4DD01330B7001E0FF2B09
:103CE000FAD19DF902503DB1FFF72CFE002DCCBF5B
:103CF0000123FF234343A3709DF903503DB1FFF718
:103D000021FE002DCCBF0123FF234343E37094F930
:103D100002000028B5D094F90320002AB1D0FFF7A3
:103D2000FDFD30B1A0701046FFF7F8FD20B1E07046
:103D3000A7E70123A370F6E70123E370A1E7254A73
:103D4000127802EB8202B0EB420FACDD01330B7054
:103D500001E0FF2BFAD19DF904503DB1FFF728FE99
:103D6000002DCCBF0123FF23434323719DF9055050
:103D70003DB1FFF71DFE002DCCBF0123FF234343C0
:103D8000637194F9040000288DD094F90520002A6D
:103D900089D0FFF7C3FD30B120711046FFF7BEFD9B
:103DA00020B160717FE701232371F6E7012363717E
:103DB00079E700BF2A1100202611002031110020D0
:103DC000090C002028110020321100200D0C0020C9
:103DD000080C00200C0C002007B50023014601222E
:103DE0000DF107008DF8073000F092F89DF80700FC
:103DF00003B05DF804FB07B50023014602220DF174
:103E00000600ADF8063000F083F8BDF8060003B0F8
:103E10005DF804FB07B50422014600230DEB020008
:103E2000019300F075F8019803B05DF804FB07B545
:103E300001228DF8071001460DF1070000F080F80F
:103E400003B05DF804FB07B50222ADF80610014689
:103E50000DF1060000F074F803B05DF804FB07B53F
:103E60000422019101460DEB020000F069F803B055
:103E70005DF804FBF8B5D31D23F0070300AFADEBED
:103E8000030D0546144668460E4600F041F82246EA
:103E90006946284604F078F820B122463146284683
:103EA00000F04EF8BD46F8BD38B50C460546FFF7A4
:103EB00093FFA04205D021462846BDE83840FFF7D1
:103EC000B6BF38BD38B50C460546FFF794FFA04293
:103ED00005D021462846BDE83840FFF7B4BF38BDBD
:103EE00038B50C460546FFF795FFA04205D02146A0
:103EF0002846BDE83840FFF7B2BF38BD0248282247
:103F0000002104F05FB800BF34110020FFF7F6BFB6
:103F100070B50D4614460021064604F053F82B19DF
:103F2000282B88BFC5F128043CB104492246294406
:103F30003046BDE8704004F037B870BD3411002041
:103F40000B461144282988BFC3F1280222B101463B
:103F50000248184404F028B8704700BF341100200C
:103F600038B505464879002800F0DC80A5F5E04525
:103F7000ABB2222B00F2BB80FEF7C2FF6A4C013DC0
:103F80002080212D12D8DFE805F04DBD551B1F59AB
:103F9000235D692FB5336D3771973B759F417B83E7
:103FA00027612B65477F8EA9B31651C5237843F04F
:103FB0000103237095E0637843F00803637090E099
:103FC000237843F00203F4E7237843F00403F0E797
:103FD000237843F00803ECE7637843F00103EDE74F
:103FE000637843F00203E9E7237843F01003E0E746
:103FF000237843F02003DCE7237843F04003D8E73D
:10400000FEF79AFA237843F08003D2E7237823F06F
:104010000C0343F00C03CCE7637823F0030343F075
:104020000303CBE723786FF30003C2E763786FF3F2
:10403000C303C3E723786FF34103BAE723786FF331
:104040008203B6E723786FF3C303B2E763786FF3B5
:104050000003B3E763786FF34103AFE723786FF3AF
:104060000413A6E723786FF34513A2E723786FF3D1
:1040700086139EE7FEF760FA23786FF3C71398E77D
:10408000237823F00C0394E7637823F0030395E788
:104090002378C3F3800282F00102D2B262F382037A
:1040A00062F3C30385E76378DA4302F0010262F347
:1040B000000362F3410381E72378C3F3801282F0A7
:1040C000010262F3861374E7FEF736FA2378C3F32E
:1040D000C01282F0010262F3C7136AE70120FEF703
:1040E00073FF2088FEF70FFFFEF726FA002038BD89
:1040F0000020F4E72378C3F3001282F0010262F398
:10410000041356E72378C3F3000282F0010262F33E
:1041100000034EE76378C3F3C00282F0010262F34A
:10412000C3034BE70120E2E710210020431F10B535
:104130003E2B00F28680DFE803F02D2430228484B9
:1041400022848451845D69848484842284842284CA
:1041500040848482828282828282828275842D203F
:104160008484848484848484848475848422847B89
:104170007B7B7B7B7B7B7B7B7500FEF723FF0120BA
:1041800007E0314A137823F00F0313702F4B0120FF
:10419000187010BDFDF727FEF1E72B4A1378C3F323
:1041A000000181F0010161F300031370D9B2DB0754
:1041B000E5D421F00E031370E1E723490B78C3F334
:1041C000400282F0010262F341030B7013F0020F10
:1041D000D5D01D4A137843F00103ECE71A490B7858
:1041E000C3F3800282F0010262F382030B7013F0CA
:1041F000040FEDE714490B78C3F3C00282F001020B
:1042000062F3C3030B7013F0080FE1E7FEF794F9B4
:104210000F490B78C3F3C01282F0010262F3C71397
:104220000B70ACE70120FEF7D6F9FEF785F9A6E79B
:104230003938C0B2012404FA00F080B2F3E71D3827
:10424000F7E70020A5E700BF161100205C11002051
:1042500010210020002070470020704770B5554E97
:104260003478012C054615D0022C33D0002C40F0B8
:104270009B80FEF71DFD222840F099802846FFF71D
:10428000E9FF18B92846FFF751FF00E0012000F0D0
:10429000010070BDFEF70CFD2228284605D1FFF76E
:1042A000D9FF0028EED02046F1E7FFF7D5FF40B94F
:1042B000142D79D007D80B2D03D0102DE9D102236E
:1042C00033700120E5E7292D6ED0A5F1380358425F
:1042D0005841DEE75228F4D84E2812D8272823D890
:1042E0001D2824D807284FF0010042D0142DD0D12A
:1042F000314A1378002BE4D0002313702F4A136047
:10430000DFE75038022846D8DFE800F030470200E7
:1043100001212A4B1B68002BD3D01A780A44FF2AAC
:104320003EDDFF221A70CCE72928E1D0C9E7224BF5
:104330001D38C0B218700138052833D8DFE800F006
:1043400003070A0D10131D4B1D4A1A60B9E71B4BDA
:104350001C4AFAE7194B1C4AF7E7184B1B4AF4E7CB
:10436000164B1B4AF1E7154B1A4AEEE76FF00901AD
:10437000CFE7134B1870134B14221A70124B0A22FA
:104380001A70124B1E221A70114B08221A70114B10
:1043900028221A707DE70A21BBE74FF0FF31B8E70A
:1043A000002ABFDA0022BDE70020307071E7204606
:1043B0006FE700BF5C1100205D110020601100203C
:1043C000080C0020090C00200A0C00200B0C002017
:1043D0000E0C00200F0C002047F61643984210B533
:1043E0000C461BD1FEF764FC62790D4B72B100F0F4
:1043F000AA00002815BF01220022352029201A70AA
:10440000FEF728FCFEF7C8FC002010BD1B78002B2F
:1044100014BF35202920FEF725FCF3E70120F4E73F
:1044200064110020F8B5144642799DF818701D46B5
:10443000284B92B11C7000F0B1FA274B188004F1A0
:104440002003DBB2072B44D804F007040120A0406E
:10445000C0B2BDE8F840FDF73EBE1E78A6422ED1A0
:104460001D4B188800F09FFAC72828D8AE4205F1E6
:10447000200415D006F12003DBB2072B06D806F086
:1044800007060120B040C0B2FDF72EFEE3B2072BB5
:1044900006D805F0070301209840C0B2FDF71BFEC7
:1044A0003846E4B2FDF70FFE072C12D805F00705D9
:1044B0000120A840BDE8F840C0B2FDF715BE04F1E8
:1044C0002003DBB2072B04D804F007040120A0402E
:1044D000F0E7F8BD65110020661100200346A3F542
:1044E000F843183B07B50846062B3BD8DFE803F036
:1044F000171E0410252C330026230093E1231A46AF
:1045000047F61A41FFF78EFF002003B05DF804FB69
:1045100027230093E5231A4647F61B41F2E726239B
:104520000093E022E12347F61841EBE727230093AD
:10453000E422E52347F61941E4E726230093E2222B
:10454000E12347F61C41DDE727230093E622E5231C
:1045500047F61D41D6E728230093E522012347F6BD
:104560001E41CFE7487918B1024B00221A70CCE700
:104570000120CAE765110020014B1860704700BF99
:1045800068110020024B186808B10368184770478B
:1045900068110020084B1B686BB1084A127842B1C1
:1045A000074A92F90020002ABFBF02784270062213
:1045B00002705B681847704768110020100C0020DB
:1045C00010210020034A12681AB102210170936879
:1045D00018477047681100200B4B07B51A888242B4
:1045E0000ED01880094B1B6853B103228DF80500CB
:1045F000000A8DF80600DB688DF8042001A89847B2
:1046000003B05DF804FB00BF6E11002068110020AC
:104610000B4B07B51A8882420FD01880094B1B68D4
:104620005BB104228DF80500000A8DF80600DB68F6
:104630008DF804200DEB0200984703B05DF804FBF1
:104640006C110020681100200C4B1B78821C63B198
:104650000B4B93F90030002BACBF06231E23002028
:10466000013BDBB2FF2B02D170470623F7E712F8BC
:10467000011B0029F4D00130C0B2F1E7100C00207A
:1046800010210020F9B1124B1B78A3B1114B93F903
:104690000030002B0FDAEF294FEAD10213D8104473
:1046A000012301F0070103FA01F18378194214BFD5
:1046B000012000207047831C083013F8012B8A4228
:1046C00003D08342F9D1002070470120704700BF1A
:1046D000100C00201021002030B54FF0FF32841C58
:1046E000002314F8015B8D420ED0B2F1FF3F02D1DE
:1046F000002D08BF1A460133DDB2062D5BB2F0D1A2
:10470000531C01D01044817030BD10B5831C0022B1
:10471000083013F8014B8C4208BF03F8012C834288
:10472000F7D110BDEF294FEAD10308D8184401F0A2
:104730000701012303FA01F183781943817070475F
:10474000EF294FEAD10308D8184401F007010123EB
:104750008B40817821EA03018170704710B4094CC5
:10476000247803460A463CB1074C94F90040002CDB
:1047700002DA10BCFFF7D6BF10BC11461846FFF78F
:10478000ABBF00BF100C00201021002010B4094C5A
:10479000247803460A463CB1074C94F90040002CAB
:1047A00002DA10BCFFF7CCBF10BC11461846FFF769
:1047B000ACBF00BF100C002010210020074B1B785D
:1047C000023043B1064B93F90030002B03DA1E226E
:1047D000002103F0F7BB0622FAE700BF100C00200F
:1047E0001021002042784B789A421DD190F9023076
:1047F0001BB191F902209A4216D190F903301BB1F6
:1048000091F903209A420FD190F905301BB191F92B
:1048100005209A4208D190F9040030B191F9043092
:10482000181A18BF0120704701207047704708B55B
:10483000FFF7FCFF08BD000008B50028034B14BFBC
:10484000022001201870FFF7F2FF08BD7011002050
:1048500008B5034B03201870FFF7E9FF08BD00BF40
:1048600070110020FFF7E8BF08B5034B0120187056
:10487000FFF7DDFF08BD00BF70110020FFF7F4BF98
:1048800070477047704708B5FFF7FCFF08BD7047D9
:1048900008B5FFF7FCFF08BD10B5FFF7F1FFFEF705
:1048A00039FFFFF7EEFF0024E0B2FEF78FFE18B9E4
:1048B0000134102CF8D110BD0120FCE708B500F040
:1048C00085FEBDE8084000F035BC08B5FDF7E6FA06
:1048D000BDE80840AA2000F002BE08B5FEF7FEF9C8
:1048E000FEF712FAFEF7C6F9FFF786F90020FFF788
:1048F00073FE0020FFF78CFEBDE80840FDF7D5BA37
:10490000302383F31188064BDA69064B1A60064A96
:1049100000231360054A136083F31188704700BFBA
:10492000782100207C1100207411002078110020D3
:10493000FFF7E6BF70B5302383F31188124B13489D
:104940001349DC6903680A68E41AA242114A08D9CB
:10495000A3F5E453036010680F4B034404F5E454DB
:1049600013600C601668002181F311884FF47A758A
:1049700042F20F7042F210720023E4FB0501FCF7D3
:10498000CDFF304470BD00BF782100207C11002095
:104990007411002078110020C096991908B5FFF70E
:1049A000C9FF80B208BD10B50446FFF7C3FF001B66
:1049B00080B210BD08B54FF47A7000F090FD00BED3
:1049C00008BD70477047302383F31188002383F3B9
:1049D0001188704770B50A4C0E4619462346154695
:1049E000002243F8042FB0F87A2045EA062000F0B0
:1049F000C9FA20606068002818BF204670BD00BF5B
:104A00008011002090F87A10074A0229137807D104
:104A1000012B01D0062B05D1044B52781A70704738
:104A2000024A1370704700BFDC110020B41100204F
:104A300070B50446064803680D460BB100F0C8FB8C
:104A40002B462146034A0248BDE8704000F0B8BB3F
:104A50009C110020594A006038B50C46302383F37E
:104A600011880B78042B03D0002383F3118838BD01
:104A7000134B1B78DB09F7D1124D2B78002BF3D0A9
:104A8000114B1B78002BEFD00B899B0705D40F4AE5
:104A900008230121204600F04AFE287842F21073D4
:104AA000A0FB03034FF47A72002300F2E7300021E9
:104AB000FCF734FF21468000FFF7BAFFD4E700BFC0
:104AC0001021002098110020100C0020B5110020AA
:104AD00038B590F8743003F07F02212A04467AD169
:104AE00013F0800F90F8753032D0022B2BD0032BAF
:104AF0001FD0012B6FD190F8780058B1012894F89D
:104B000076200ED0424BA3661A7094F87A30E36692
:104B100000232CE03F4AA2660822E26620670120BB
:104B200010E0022AEED13C4BA3660623E366002385
:104B300007E0B0F87830002B4DD1384A826601206A
:104B4000E066236738BD364B83660120E066EEE7FA
:104B50000A2B37D00B2B0CD0092B3CD190F8783096
:104B6000012B38D82F4B83660223C3662E4B236755
:104B7000D5E7B0F878300BBB90F87650274B002D76
:104B800014BF012200221A7018D1254B1A78AAB13D
:104B9000302282F31188187842F21073A0FB0303CD
:104BA0004FF47A72002300F2E7300021FCF7B6FEE2
:104BB00021468000FFF73CFF85F311880023A366A0
:104BC000E366D4E71949164B097890F877201A70F4
:104BD000CD09F3D1DBE7B4F8742040F281639A4247
:104BE00001D00020AEE794F87920616894F878301D
:104BF0004D6894F8771043EA0223204694F8762013
:104C0000A8470028EDD04368A36603687FE700BF8C
:104C1000F0110020B5110020D6110020100C00204A
:104C200098110020DC110020054A006010210020AE
:104C300010B5064A064C117824784B1C03F00F037C
:104C40009C421EBF034C1370605410BD62210020B3
:104C5000632100205221002010B504460846052992
:104C600021D8DFE801F01A20031A1A1E302383F33B
:104C700011880D4A2046012100F007FD0B4A022150
:104C8000204600F002FD002383F31188084B1B78B7
:104C900013B10520FFF7CCFF0220BDE81040FFF75D
:104CA000C7BF0520F9E710BD6C90006090900060D0
:104CB000D511002008B510220448002103F082F924
:104CC000034A00231370034A137008BD52210020C9
:104CD000622100206321002070B5284D284C2878DF
:104CE0002378284E0021984230D101B1207070BD48
:104CF0002370254B01221A70244B93F87F10081E55
:104D000018BF0120FFF7A4FDE9E723701E4B002226
:104D10001A70FFF7E2FD1D4B93F87F10081E18BFB5
:104D20000120FFF79FFDDAE72370184B93F87F10FF
:104D3000081E18BF0120FFF77FFDD0E70021237078
:104D40000846F8E72370FFF78FFDC8E71A460133DE
:104D5000B25C03F00F030121052AC4D80FF2040C42
:104D60005CF822F0454D0060E74C0060294D006082
:104D70003D4D0060F14C00600B4D00606221002051
:104D80006321002052210020D5110020F4210020B1
:104D900038B50E4D2B68002201210446986802F0B8
:104DA0002BFD204600F047FC4FF4FA7000F097FB13
:104DB0000749204600F02BFC2B680022986811461A
:104DC00002F01AFD034B00221A6038BDF0210020CA
:104DD000B49000609C11002038B50B4D2B68044640
:104DE00000229868012102F007FD204600F023FC14
:104DF0000649204600F00BFC2B68002298681146FB
:104E0000BDE8384002F0F8BCF0210020B49000600A
:104E1000014B1878704700BFB411002070B53023E3
:104E200004460D46164683F311880F480378042B79
:104E300003D0002383F3118870BD02890123A340AE
:104E4000134209D000EB84006421C36858690C3018
:104E500000F052FB0130ECD0034833462A4621468D
:104E600000F065FCE5E700BFF421002010B50D4B14
:104E70001B78044653B9014608220120FFF7CEFFF4
:104E800020222146084803F08FF810BD074B93F904
:104E90000030002B0146ABBF082220220120022057
:104EA000ECE700BF100C0020B511002010210020FD
:104EB00010B50146044606220220FFF7AFFF062286
:104EC0002146024803F070F810BD00BFD611002043
:104ED000014603220220FFF7A1BF704770477047C9
:104EE00008B5FFF7FAFF00F0A4FEFFF7F7FF08BDD3
:104EF00008B500F0A6FEFFF7F2FF08BDFFF7BEBC45
:104F000008B5FFF7D7FE0648FFF742FF054B064AF4
:104F10001A604FF4FA70BDE8084000F0E0BA00BF34
:104F2000F421002010120020140C0020014B1868FE
:104F3000FFF722BB1012002010B5104CFFF7CCFE7B
:104F40002378052B19D12378052B05D0FDF724FFF5
:104F5000BDE81040FEF734BEFFF7B7FCB4F87C3074
:104F60009B07F0D5FFF798FC0028ECD0204600F016
:104F7000F0FB2046FFF730FFE5E710BDF4210020ED
:104F80007047000010B5040A032C0FD007D8012C7D
:104F900021D0022C07D1144A3B201A6010BD212CCD
:104FA0000DD0222C11D000200246F6E7C0B2022814
:104FB000F9D80E4A0E4952F82020085CEDE769B195
:104FC0000129F0D10B4A0920E7E751B10129EAD1C3
:104FD000094AB620E1E7094A1220DEE7084A09201B
:104FE000DBE7084A4420D8E7D3900060C490006013
:104FF000D0900060FE900060969100600E9100607D
:10500000E590006020910060024B034A1A60034A59
:105010005A60704764210020902200200000082080
:10502000094B30B51C684D1E224449422A440A40AF
:1050300059681044884204D8A04202D31860104630
:1050400030BD0022FBE700BF6421002008B53023FB
:1050500083F31188FFF7E4FF002383F3118808BD71
:1050600070B5BFF34F8FBFF36F8F1A4A0021C2F89C
:105070005012BFF34F8FBFF36F8F536943F4003368
:105080005361BFF34F8FBFF36F8FC2F88410BFF32C
:105090004F8FD2F88030C3F3C900C3F34E335B01A6
:1050A00043F6E07403EA0406014646EA81750139D5
:1050B000C2F86052F9D2203B13F1200FF2D1BFF3B6
:1050C0004F8F536943F480335361BFF34F8FBFF366
:1050D0006F8F70BD00ED00E0FEE7000070B5144C6E
:1050E000082560682368A268043B01468A4219D8F3
:1050F000D31C1B1AC11E23F003038A4238BF0023AE
:105100001844E368DA1C121AC11E22F00302994205
:1051100088BF0022002102F055FF013D04F1100478
:10512000DFD170BD53F8046F41F8046BDEE700BFB8
:105130004C92006038B5084C01230025237065604F
:10514000FFF762FF0549064800F03CF9022323708F
:1051500085F3118838BD00BF70210020D092006017
:105160007821002072B6034BD865034B03221A70D6
:10517000FEE700BF7821002070210020034BDA6891
:10518000937D0BB1013B937500F034B8782100207A
:1051900010B50A4C23699A6891420CD85A6881600C
:1051A0000360426010609A685860511A99604FF02D
:1051B000FF33A36110BD1B68891AECE7782100203A
:1051C00010B40361002310BCC2604361FFF7E0BF6D
:1051D000036881689A680A449A60426813605A605A
:1051E00000230360024B4FF0FF329A61704700BF0B
:1051F0007821002070B5124DEB692A460133EB612E
:1052000052F8103F934206D09A68013A9A603026CD
:105210002C69A36803B170BD226861680A6051609F
:10522000236083F31188E36821692046984786F359
:10523000118861690029EBD02046FFF7A9FFE7E755
:105240007821002000230375826803691B68996830
:105250009142FBD25A680360426010605860704708
:1052600000230375826803691B6899689142FBD823
:105270005A6803604260106058607047084B10B570
:105280001C68D86822681A60536001222275DC60AD
:10529000FFF7E6FF01462046BDE81040FCF728BBBB
:1052A0007821002008B50846302383F311880A7D51
:1052B0000023052A06D8DFE802F00B050503120ECD
:1052C000826913604FF0FF338361FFF7BBFF002358
:1052D00083F3118808BD8269936801339360426843
:1052E000036813605A60EDE7FFF7ACBF064BD9685F
:1052F0001422087518688A7502681A6053600122C2
:105300000275D860FCF7F4BA7821002030B50C4B58
:10531000DD684B1C87B004460FD02B46094A68460F
:10532000FFF74EFF2046FFF7E1FF009B13B16846F1
:10533000FFF74EFFA86907B030BDFFF7D7FFF9E7C9
:1053400078210020A5520060044B1A68DB6892683F
:105350009B689A4201D9FFF791BF704778210020DE
:10536000084BDA681B6898689368927D22B198426E
:1053700094BF002001207047984234BF00200120D4
:10538000704700BF782100200C4B10B51C68D8680E
:1053900022681A60536001222275DC60837D4BB95C
:1053A000FFF750FF1423014683752046BDE81040E7
:1053B000FCF79EBAFFF754FF0146F6E7782100207C
:1053C00030BFFDE770B51B4B01630025044686B076
:1053D000586085620E4600F0AFF804F110032361B7
:1053E00063614FF0FF33A361134BE561D96924601A
:1053F0000A462B46C4E9082304F134010F4A6460CD
:10540000A560E562E5658023204600F01DF80123D4
:10541000E0600B4A0375009272680192B268CDE9B0
:105420000223084B6846CDE9043500F043F806B086
:1054300070BD00BF7021002078210020DC92006048
:10544000E1920060C153006002228B608A824B624D
:105450001422002308618A750B62CB6108467047ED
:105460008368C168A3F14C0243F81C2C026943F81D
:105470004C2C426943F8482C0C4A0D4843F82C2C1C
:10548000022203F8142C43F8180C0022142003F80D
:10549000120C43F8201C03F8132C43F8041C43F8A7
:1054A000082C43F80C2CA3F1280070470119006068
:1054B0007821002008B5FFF7D3FFBDE80840FFF7CB
:1054C00013BF0000024BDB6898610F20FFF70EBF8F
:1054D00078210020302383F31188FFF7F3BF08B54C
:1054E0000146302383F311880820FFF70FFF0023C4
:1054F00083F3118808BD0000054BDB6821B1036010
:1055000098610320FFF702BF4FF0FF30704700BFE4
:10551000782100200346006820B100221A608161D2
:10552000FFF7E2BE7047EFF30983203383F3098866
:10553000002383F311887047302080F3118862B60E
:105540000D4B0E4AD96821F4E0610904090C0A43A5
:10555000DA60D3F8FC200A4942F08072C3F8FC20DC
:10556000084AC2F8B01F116841F001011160202201
:10557000DA7783F82200704700ED00E00003FA05B7
:1055800055CEACC5001000E010B5302383F3118870
:105590000B4B5B6813F400630FD0EFF30984203CDE
:1055A0004FF08073E36184F30988FFF7D9FE10B1EF
:1055B000044BA36110BD044BFBE783F31188F9E7AB
:1055C00000ED00E0131900601619006008B500F046
:1055D000A6FB054801F062F800F00AF8FFF788FC26
:1055E000BDE8084000F002B8EC92006001F097B905
:1055F00001F086BA10B501230446382200F82C3B8E
:10560000002102F0DFFC00236360A36010BD10B531
:105610003023044683F311882022416000210C309E
:1056200002F0D0FC204601F093FA02232370002000
:1056300080F3118810BD70B53023044683F31188C0
:10564000254601F09BFA00260123666005F80C3B15
:105650002C3455F8043B7BB1586920B16FF001013F
:105660000C30FFF757FF55F8043C986920B16FF0F4
:1056700001010C30FFF74EFFA54245F8046CE8D15C
:10568000FFF762FE86F3118870BD70B500EB8103F1
:1056900005465069DA600E46144618B11022002102
:1056A00002F090FCA06918B11022002102F08AFCDF
:1056B00031462846BDE8704001F0D6BAF8B5836897
:1056C00003F001130446836000F1100500F12C067D
:1056D000002755F8043B7BB1586920B16FF00101F8
:1056E0000C30FFF717FF55F8043C986920B16FF0B4
:1056F00001010C30FFF70EFFB54245F8047CE8D1FC
:105700002046BDE8F84001F0F3BAF0B400EB8104A4
:105710004789E4680125A4698D403D4345812360A4
:105720000023A2606360E360F0BC01F01FBBF0B433
:1057300000EB81040789E468012564698D403D43DD
:10574000058123600023A2606360E360F0BC01F088
:105750001FBB70472DE9F041022300260446037069
:10576000C667866000F10C0500F12C074FF0300889
:1057700055F8043BABB188F3118855F8043C5869DF
:1057800020B16FF001010C30FFF7C4FE55F8043C66
:10579000986920B16FF001010C30FFF7BBFE86F372
:1057A0001188BD4245F8046CE2D184F8646020465B
:1057B00001F0FAF963681B6823B120460021BDE8B7
:1057C000F0411847BDE8F081F8B50378052B044691
:1057D00029D080F880300523037043681B680BB123
:1057E000042198470026A66004F10C0530272C34CC
:1057F00055F8043BABB187F3118855F8043C586960
:1058000020B16FF001010C30FFF784FE55F8043C25
:10581000986920B16FF001010C30FFF77BFE86F331
:105820001188A542E4D1F8BD0178052906D190F888
:105830008020436802701B6803B11847704700005E
:1058400070B590F86430044613B1002380F86430DA
:1058500004F17402204601F087FA63689B68B3B9CB
:1058600094F8743013F0600539D00021204601F01F
:10587000A3FA0021204601F099FA63681B6813B16E
:10588000062120469847062384F8643070BD2046E0
:1058900098470028E4D094F87B2094F87A3043EAC3
:1058A0000223E26E9A4288BFE36694F97430E56E93
:1058B000002B4FF0300380F20881002D00F0F780BC
:1058C000092284F8642083F311880021E36EA26E1C
:1058D0002046FFF72CFF002383F31188D6E794F8C6
:1058E000752003F07F0343EA022340F20232934221
:1058F00000F0CA8021D8B3F5807F4DD00DD8012BA0
:1059000044D0022B00F09880002BAED104F17C0231
:10591000A2660222E2662367BDE7B3F5817F00F04D
:10592000A080B3F5407FA0D194F87630012B9CD1B4
:10593000B4F87C3043F0020337E0B3F5006F52D087
:105940001CD8B3F5A06F36D0A3F5C063012B8CD85B
:1059500094F87920616894F878304E6894F877105C
:1059600043EA0223204694F87620B04700283FF40B
:105970007CAF4368A3660368E3661AE0B3F5106F73
:1059800036D040F6024293427FF46FAF5B4BA36682
:105990000223E3660023BEE794F87630012B7FF400
:1059A00064AFB4F87C3023F00203A4F87C30A56621
:1059B000E56625676FE7B4F87430B3F5A06F0ED1D4
:1059C00094F8763084F87E30204601F01FF9636841
:1059D0001B6813B10121204698470323237000233D
:1059E000A366E36697E704F17F03A3660123C3E799
:1059F0002378042B10D1302383F311882046FFF73E
:105A00005DFE85F311880321636884F87F5021705F
:105A10001B680BB12046984794F87630002BDED0F7
:105A200084F87F300423237063681B68002BD6D072
:105A3000022120469847D2E794F878301D0603F0FB
:105A40000F0120460AD501F071F9012804D002287F
:105A50007FF40BAF2A4B9AE72A4B98E701F04AF9FB
:105A6000F3E794F87630002B7FF4FFAE94F87830AB
:105A700013F00F01B3D01A06204602D501F0AAF99F
:105A8000ADE701F0A1F9AAE794F87630002B7FF496
:105A9000ECAE94F8783013F00F01A0D01B0620462E
:105AA00002D501F089F99AE701F080F997E714220D
:105AB00084F8642083F311882B462A462946204621
:105AC000FFF723FE85F31188E0E65DB1152284F827
:105AD000642083F311880021E36EA26E2046FFF755
:105AE00014FEF8E60B2284F8642083F311882B4619
:105AF0002A4629462046FFF71AFEE3E7EA920060AD
:105B0000E6920060E892006038B590F86430044690
:105B1000002B42D0063BDAB20F2A38D80F2B36D8EA
:105B2000DFE803F03B353508263635353535353574
:105B300035353B3B90F87A3090F87B20C56E43EAD0
:105B400002239D4214D2C3681B8AB5FBF3F203FB08
:105B500012556DB9302383F311882B462A46294606
:105B6000FFF7E5FD85F311880A2384F864300EE021
:105B7000142384F86430302383F3118800231A46F9
:105B800019462046FFF7C1FD002383F3118838BD75
:105B9000036F03B198470023E7E70021204601F097
:105BA0000BF90021204601F001F963681B6813B16D
:105BB0000621204698470623D7E710B590F86430B1
:105BC000142B044629D017D8062B05D001D81BB1B9
:105BD00010BD093B022BFBD80021204601F0ECF858
:105BE0000021204601F0E2F863681B6813B106212A
:105BF00020469847062319E0152BE9D10B2380F89E
:105C00006430302383F3118800231A461946FFF7C6
:105C10008EFD002383F31188DAE7C3689B695B6814
:105C2000002BD5D1036F03B19847002384F864306B
:105C3000CEE7704708B500F073F8BDE8084000F003
:105C400019BC7047162303604FF0FF3070470020E7
:105C50007047184670470020704710B50022044670
:105C600008460121FFF7F2F918B90C2323604FF021
:105C7000FF3010BD08B5134600215822184602F027
:105C8000A1F94FF400524260002008BD0120704786
:105C900008B50248FFF766FA02F036F9EC920060A8
:105CA00008B50248FFF75EFA02F02EF9F1920060A3
:105CB00001207047704700F1604303F5614309011B
:105CC000C9B283F80013012200F01F039A40430970
:105CD0009B0003F1604303F56143C3F880211A6020
:105CE000704700F01F0301229A4043099B0003F113
:105CF000604303F5614300F1604000F56140C3F883
:105D00008020C3F88021002380F80033704700F121
:105D10006040090100F56D40C9B2017670477047D7
:105D20000F4A08B5936F43F00C03936700F076FBBE
:105D30000C4B4FF0FF329A66DA661A675A6703F522
:105D4000A6130522C3F84821074B5A6842F00802FF
:105D50005A600822C3F88420044B9B6808BD00BF2A
:105D600000C00F4000C00A400040004200ED00E0CB
:105D700038B5C3B203F1804303F57C23C0F3042597
:105D80001C68820EA940C0F34C30A8406140084016
:105D90006040202A186006D9074B084A084840F29C
:105DA0009F4102F0B9F805D00123064993408A6C5F
:105DB0001A42FCD138BD00BFF69200606B930060C0
:105DC0001493006000C00F4038B5C3B203F18043A4
:105DD00003F57C23C0F304251C68820EA940C0F3A0
:105DE0004C30A840614008406040202A186006D925
:105DF000074B084A084840F27A4102F08DF805D076
:105E00000123064993408A6C1A42FCD138BD00BF79
:105E1000F69200605E9300601493006000C00F4033
:105E200010B50749040A032251F8243000F01F007E
:105E300002FA00F023EA000041F8240010BD00BF80
:105E400068C00F4038B5DD4B4FF400421A60DC4BA0
:105E5000D3F8C02242F48032C3F8C022D3F8C02263
:105E600022F40032C3F8C022D64BD74A1A60002071
:105E700000F016FC00F046FC012000F037FCD34A8D
:105E8000D348136823F0FF0343F07F03136001211D
:105E9000FFF79AFFCF480121FFF796FFCE4AD3685C
:105EA00023F01F0343F01303D3601368002BFCDAC5
:105EB0000021CA48C24CFFF75BFF4FF48870FFF720
:105EC000AFFF4FF48470FFF7ABFF40F21620FFF7EF
:105ED000A7FF4FF40670FFF7A3FF40F20E20FFF775
:105EE0009FFFBF480321FFF743FFBE480121FFF793
:105EF0003FFF0021BC48FFF73BFF4FF48A70FFF7DC
:105F00008FFF4FF48B70FFF78BFF1820FFF788FF90
:105F10001A20FFF785FF4FF48670FFF781FF0121FC
:105F2000B248FFF725FF40F20260FFF779FFB04863
:105F30000121FFF71DFF0021AE48FFF745FF40F2AA
:105F40000460FFF76DFFAC480121FFF711FF00214E
:105F5000AA48FFF739FF4FF44170FFF761FF0721AF
:105F60004FF21400FFF704FFA5480021FFF72CFFB4
:105F70000021A448FFF728FF4FF48070FFF750FF7F
:105F80004FF48170FFF74CFF4FF48270FFF748FF2A
:105F90004FF48370FFF744FF9B480421FFF7E8FEAE
:105FA00002219A48FFF710FF1620FFF739FF9848A3
:105FB0000321FFF7DDFE00219648FFF705FF40F2C1
:105FC0001250FFF72DFF94480321FFF7D1FE9348AD
:105FD0000121FFF7CDFE00219148FFF7F5FE40F2C9
:105FE0001450FFF71DFF8F480321FFF7C1FE8E48B5
:105FF0000121FFF7BDFE00218C48FFF7E5FE40F2CE
:106000001650FFF70DFF8A480321FFF7B1FE8948BC
:106010000121FFF7ADFE00218748FFF7D5FE40F2D2
:106020000620FFF7FDFE4FF40270FFF7F9FE40F285
:106030000A20FFF7F5FE81480021FFF799FE0021B5
:106040007F48FFF7C1FE0E20FFF7EAFE1220FFF7A0
:10605000E7FE40F20670FFF7E3FE1020FFF7E0FED8
:106060001420FFF7DDFE4FF4E160FFF7D9FE75481D
:106070000121FFF77DFE02217348FFF7A5FE4FF4D3
:10608000A360FFF7CDFE1C20FFF7CAFE0C20FFF730
:10609000C7FE4FF48C70FFF7C3FE40F20230FFF7EB
:1060A000BFFE40F20630FFF7BBFE40F21A50FFF78A
:1060B000B7FE40F20E60FFF7B3FE64480021FFF721
:1060C00057FE00216248FFF77FFE40F20A30FFF7DB
:1060D000A7FE60480121FFF74BFE5F480321FFF751
:1060E00047FE05215D48FFF76FFE40F20E50FFF7B7
:1060F00097FE5B480121FFF73BFE5A480721FFF757
:1061000037FE03215848FFF75FFE40F20250FFF7C9
:1061100087FE56480121FFF72BFE55480721FFF760
:1061200027FE03215348FFF74FFE4FF44070FFF75F
:1061300077FE51480121FFF71BFE50480721FFF76A
:1061400017FE4F480321FFF73FFE00214D48FFF7A0
:106150003BFE4D4800F008FB4C4800F027FB1B219C
:10616000002000F0B7FB1021012000F0B3FB182144
:10617000022000F0AFFB1021032000F0ABFB00F089
:1061800099FB4FF480336367D4F8703123F40043F4
:10619000C4F87031D4F8703123F40003C4F87031BE
:1061A000236F43F400532367D4F8A03023F4005343
:1061B000C4F8A030D4F8A0306AE000BFDC21002091
:1061C00000800D40D821002000366E0100C00F4035
:1061D000186C0080143900140000084014EA000410
:1061E0001468008010E0004014FB00801CE0078071
:1061F00024EB00801C30008024F000801C310080E3
:10620000142700801426008018FA0080186400808B
:1062100024790080186E008028E6008028E007803E
:106220001C6A00802CE600802CE007801C6C00803B
:1062300028F6008028F007801C6E008038F3078065
:106240003832008020E207802068008024E0078048
:106250002426008038EC008018F7008038EF00809A
:1062600030F9008030F600803074008030EC00801F
:1062700030E900803067008028E9008028F900803C
:10628000207300800C200080789300608093006071
:1062900023F4E03343F48033C4F8A0300023C4F87F
:1062A000B0300123C4F8C030D4F8A030D4F8702145
:1062B00023F4415323F03F0343F4022343F01F032D
:1062C00042F04042C4F87021C4F8A030D4F8A030A5
:1062D000002BFBDA4FF48035C4F8A85000F0F2FA36
:1062E000C4F8E450D4F8E03023F0030343F0010392
:1062F000C4F8E030D4F8E03043F40053C4F8E030A0
:10630000D4F8E03023F00C03C4F8E030D4F8E030E7
:1063100043F48013C4F8E030D4F8E03043F40013C1
:10632000C4F8E03000F0C0FA6562236A344843F4F0
:10633000005323620321FFF747FD32480021FFF796
:1063400043FD31480021FFF73FFD30480021FFF7B2
:106350003BFDD4F8603123F01F03C4F860312C4BAF
:106360001A6E22F070021A661A6E22F00F0242F0C4
:1063700001021A661A6E22F460021A661A6E22F47C
:10638000F81242F490121A661A6E22F480721A669B
:106390001A6E22F080021A661A6E22F080721A6655
:1063A000A3F5A0235A6822F007025A605A6822F027
:1063B00038025A605A6822F0C0025A605A6822F4C1
:1063C00040725A605A6822F440625A609A6822F019
:1063D0009F6222F4E0229A605A6822F400525A60C6
:1063E0005A6822F480425A605A6922F080525A61F7
:1063F0005A6922F000525A61064B074A1A6038BDAA
:106400001872008014390014186C00801C2600805B
:1064100000C00F40240C00200046C323FFF712BD2C
:1064200072B6114B114A9A60114B4FF0AA325A645E
:10643000BFF34F8FBFF36F8F1A6C22F001021A6403
:106440001A6C42F006021A64BFF34F8FBFF36F8FCE
:106450009A6B22F47F0242F420029A63BFF34F8FBB
:10646000BFF36F8FFBF740BA00ED00E0001400604F
:1064700000C00A401B4B0022C3F894201022C3F82E
:106480009C20194AC3F8A0201122C3F89C20174A67
:10649000C3F8A020164AC3F89C20164AC3F8A020CF
:1064A000154AC3F89C20154AC3F8A020144AC3F823
:1064B0009C20144AC3F8A020134AC3F89C20134A16
:1064C000C3F8A020124AC3F89C20124AC3F8A020A7
:1064D000114AC3F89C20114AC3F8A0200122C3F836
:1064E0009420704700ED00E03F000010090010000C
:1064F00012002000210002071300002025000813CD
:106500001400202027000B13150000403300101347
:10651000160000602F000B07170000702F000B13F0
:10652000034B00685B5CD84000F00100704700BF7F
:10653000960C0020054B595C01238B40012A0CBFAF
:10654000C0F88430C0F88830704700BF960C002037
:1065500070B54D4C4369665C0125B54023EA0503DF
:106560004361162A1FD8DFE802F00C730C3646731D
:106570000C251E1E1E1E1E1E1E1E565E656C737A88
:106580008100424B424D5B5C043305EB83030526DF
:106590005E60404B5B5C803305EB8305062A4FF061
:1065A00030036B6069D0615C436801228A4023EA52
:1065B000020367E0354B364A5B5C043302EB83032E
:1065C00005255D60334B5B5C803302EB83024FF447
:1065D00000635360E7E72D4B2D4A5B5C043302EB0D
:1065E000830305255D602B4B5B5C803302EB8302EC
:1065F0004FF4E043EDE7254B254A5B5C043302EBA7
:10660000830305255D60234B5B5C803302EB8302D3
:106610004FF44053DDE71D4B5A5C1F4B920013446F
:1066200001225A60BFE7194B5A5C1B4B920013447E
:106630000222F6E7154B5A5C174B920013440322D3
:10664000EFE7124B5A5C144B920013440422E8E724
:106650000E4B5A5C104B920013440522E1E70B4BA2
:106660005A5C0D4B920013440622DAE7074B5A5C42
:10667000094B920013440722D3E7615C426801236F
:106680008B401343436070BD960C0020280C002003
:1066900000801F405F0C002010801F4070470000EA
:1066A00008B528B10D4B0E4A0E48C12101F034FC4B
:1066B0000D4B4FF08042C3F85821D3F87022D1031C
:1066C000FBD54FF48032C3F85421D3F85021120483
:1066D000FBD54FF48032C3F8582108BD9493006075
:1066E000EB930060A393006000800D40044B1022E8
:1066F00010B9C3F874227047C3F87822704700BFFE
:1067000000800D40034AD2F8703243F00103C2F812
:106710007032704700800D40104AD2F8803043F04C
:106720000303C2F8803002F5F212D2F8403143F090
:106730000203C2F840310A4B00BF013BFCD1094AB9
:10674000D2F8203123F4F85323F0010343F4B85373
:1067500043F00103C2F820310120704700C00F4010
:10676000801A060000800D400F4A037911689B03D0
:1067700021F4E0319BB20B4343F480331360116882
:10678000036821F4415103F07F0321F03F010B43E3
:1067900043F4005313601368002BFCDA136823F4EE
:1067A00080331360704700BF00800D40184B027BA0
:1067B000196B920321F4E03192B20A4342F4803221
:1067C0001A63196B027821F4405121F0010102F0A3
:1067D00001020A4342F400521A634268C18922F05E
:1067E00040421A65826822F040421A66428AC2F329
:1067F0000E0242EA0142017CC90389B20A431A64CB
:106800001A6B002AFCDA1A6B22F480321A63704782
:1068100000800D400F4A437811699B0321F4E03159
:106820009BB20B4343F4803313611169037821F465
:1068300041515B0003F0020321F002010B4343F4DA
:10684000415313611369002BFCDA136923F480337D
:106850001361704700800D4007B50023ADF8043088
:106860000F4B1A69920416D51A6942F040021A6158
:106870000C4B1A6B22F000421A631A6B22F0804212
:106880001A6300221A601A6B012042F4C6121A63BE
:1068900003B05DF804FB01A8FFF7BCFFE8E700BF09
:1068A00000800D4000900D40014B00221A6270479D
:1068B00000800D40024B4FF480521A67704700BFB2
:1068C00000800D40024B4FF48052C3F8E020704727
:1068D00000800D4010B50A4CC000D4F80021BF2341
:1068E000834022EA030201F03F018023834081407C
:1068F00013431143C4F80031C4F8001110BD00BFA8
:1069000000800D4008B5302383F31188FEF736FC74
:10691000002383F31188BDE80840FEF735BE4FF031
:10692000E0234EF65F225A6100229A6107221A6123
:1069300008210B20FFF7EBB9022908B508D003297D
:106940000AD0012902D10648FEF704FF002008BD45
:106950000348FEF739FFF9E70148FEF765FFF5E761
:10696000F421002070B5244D047AEE68426884B1A9
:10697000AB68016823F0011305F17400AB6001F00E
:1069800013FB74681CB100212846A0470024204650
:1069900070BD501C2DD0B1B9B3695A606B8923F01A
:1069A00001036B81F3680BB128469847302383F3CA
:1069B0001188EB68986941680C30FEF7ABFD002444
:1069C00084F31188E3E72B8923F001032B81B3685B
:1069D00013B1214628469847302383F31188EB688A
:1069E000586900210C30FEF795FD002383F31188D0
:1069F000CDE70524CBE700BFF421002008460121A4
:106A0000FFF7B0BF08460021FFF7ACBF70B50D7AA5
:106A10001DBB4B68013322D0124CD1B28E1C04EB4B
:106A200086035868012303FA01F2238923EA02034B
:106A3000238183680BB120469847302383F3118864
:106A400004EB86040021636858690C30FEF762FD90
:106A5000002383F31188284670BD0125FBE7052537
:106A6000F9E700BFF421002070B50D7A2DBB4B680B
:106A7000591C24D0134CD1B28E1C04EB86025068F2
:106A800082695360012303FA01F2638923EA020356
:106A90006381C3680BB120469847302383F3118884
:106AA00004EB86046368986941680C30FEF732FD98
:106AB000002383F31188284670BD0125FBE70525D7
:106AC000F9E700BFF42100200B4B186883685B686E
:106AD00010B5D3F84441D3F848311C4001F011F807
:106AE000230604D505484368DB6803B19847BDE831
:106AF0001040FEF749BD00BFF0210020F421002026
:106B000013B50E4C0E48FEF775FD03220D4901A882
:106B100001F04AFA21460020FFF79EFE21460020A0
:106B2000FFF7FAFD01AA0021022001F0A1F9064AAF
:106B30000649022000F016FA02B010BD00389C1C75
:106B4000F4210020488E0060F021002039690060A7
:106B500008B50378012B0CD1064B984209D1064B9E
:106B6000186800F0DDF9BDE8084003217120FFF747
:106B7000A2B808BDF4210020F021002008B5037858
:106B8000012B0BD1064B984208D1064B186800F038
:106B9000CBF9BDE808407120FFF7A3B808BD00BFDE
:106BA000F4210020F021002010B586B0134B144CC6
:106BB000C3604022134BADF8042080220393ADF84C
:106BC000062000232068049303AA01A9ADF8083029
:106BD00000F034FA78B90C4B04908DF8060003AA43
:106BE0002068039301A900F029FA20B19DF806104E
:106BF000206800F042FA06B010BD00BF04940060A7
:106C0000F0210020FD690060056A006073B5154C35
:106C10000546002620688DF807600DF10702062161
:106C200000F06CFA9DF80730032B0DD0022B09D829
:106C300095F87E308DF807300DF1070207212068A6
:106C400000F07DFA02B070BD20683246072100F0E6
:106C500076FA0028F6D101238DF807300DF10702EE
:106C60000621ECE7F021002030B5082987B00C465A
:106C700012D800EB8100C568AA696B6902B95BB1E3
